{
  "_format": "hh-sol-artifact-1",
  "contractName": "MusicPlatform",
  "sourceName": "src/Platform.sol",
  "abi": [
    {
      "inputs": [],
      "stateMutability": "nonpayable",
      "type": "constructor"
    },
    {
      "anonymous": false,
      "inputs": [
        {
          "indexed": true,
          "internalType": "address",
          "name": "artist",
          "type": "address"
        },
        {
          "indexed": false,
          "internalType": "string",
          "name": "name",
          "type": "string"
        },
        {
          "indexed": false,
          "internalType": "string",
          "name": "bio",
          "type": "string"
        }
      ],
      "name": "ArtistRegistered",
      "type": "event"
    },
    {
      "anonymous": false,
      "inputs": [
        {
          "indexed": true,
          "internalType": "address",
          "name": "artist",
          "type": "address"
        },
        {
          "indexed": false,
          "internalType": "string",
          "name": "name",
          "type": "string"
        },
        {
          "indexed": false,
          "internalType": "string",
          "name": "bio",
          "type": "string"
        },
        {
          "indexed": false,
          "internalType": "string",
          "name": "avatarHash",
          "type": "string"
        }
      ],
      "name": "ArtistUpdated",
      "type": "event"
    },
    {
      "anonymous": false,
      "inputs": [
        {
          "indexed": true,
          "internalType": "address",
          "name": "previousOwner",
          "type": "address"
        },
        {
          "indexed": true,
          "internalType": "address",
          "name": "newOwner",
          "type": "address"
        }
      ],
      "name": "OwnershipTransferred",
      "type": "event"
    },
    {
      "anonymous": false,
      "inputs": [
        {
          "indexed": false,
          "internalType": "address",
          "name": "account",
          "type": "address"
        }
      ],
      "name": "Paused",
      "type": "event"
    },
    {
      "anonymous": false,
      "inputs": [
        {
          "indexed": true,
          "internalType": "uint256",
          "name": "proposalId",
          "type": "uint256"
        },
        {
          "indexed": true,
          "internalType": "address",
          "name": "proposer",
          "type": "address"
        },
        {
          "indexed": false,
          "internalType": "string",
          "name": "title",
          "type": "string"
        },
        {
          "indexed": false,
          "internalType": "string",
          "name": "description",
          "type": "string"
        }
      ],
      "name": "ProposalCreated",
      "type": "event"
    },
    {
      "anonymous": false,
      "inputs": [
        {
          "indexed": true,
          "internalType": "uint256",
          "name": "proposalId",
          "type": "uint256"
        },
        {
          "indexed": false,
          "internalType": "bool",
          "name": "passed",
          "type": "bool"
        }
      ],
      "name": "ProposalExecuted",
      "type": "event"
    },
    {
      "anonymous": false,
      "inputs": [
        {
          "indexed": true,
          "internalType": "address",
          "name": "to",
          "type": "address"
        },
        {
          "indexed": false,
          "internalType": "uint256",
          "name": "amount",
          "type": "uint256"
        },
        {
          "indexed": false,
          "internalType": "string",
          "name": "reason",
          "type": "string"
        }
      ],
      "name": "RewardDistributed",
      "type": "event"
    },
    {
      "anonymous": false,
      "inputs": [
        {
          "indexed": false,
          "internalType": "address",
          "name": "account",
          "type": "address"
        }
      ],
      "name": "Unpaused",
      "type": "event"
    },
    {
      "anonymous": false,
      "inputs": [
        {
          "indexed": true,
          "internalType": "uint256",
          "name": "proposalId",
          "type": "uint256"
        },
        {
          "indexed": true,
          "internalType": "address",
          "name": "voter",
          "type": "address"
        },
        {
          "indexed": false,
          "internalType": "bool",
          "name": "support",
          "type": "bool"
        },
        {
          "indexed": false,
          "internalType": "uint256",
          "name": "votingPower",
          "type": "uint256"
        }
      ],
      "name": "Voted",
      "type": "event"
    },
    {
      "inputs": [
        {
          "internalType": "string",
          "name": "genre",
          "type": "string"
        }
      ],
      "name": "addGenre",
      "outputs": [],
      "stateMutability": "nonpayable",
      "type": "function"
    },
    {
      "inputs": [
        {
          "internalType": "uint256",
          "name": "poolId",
          "type": "uint256"
        },
        {
          "internalType": "uint256",
          "name": "amount",
          "type": "uint256"
        }
      ],
      "name": "addToRewardPool",
      "outputs": [],
      "stateMutability": "nonpayable",
      "type": "function"
    },
    {
      "inputs": [
        {
          "internalType": "address",
          "name": "",
          "type": "address"
        }
      ],
      "name": "artists",
      "outputs": [
        {
          "internalType": "string",
          "name": "name",
          "type": "string"
        },
        {
          "internalType": "address",
          "name": "walletAddress",
          "type": "address"
        },
        {
          "internalType": "uint256",
          "name": "registrationDate",
          "type": "uint256"
        },
        {
          "internalType": "bool",
          "name": "isActive",
          "type": "bool"
        },
        {
          "internalType": "uint256",
          "name": "totalEarnings",
          "type": "uint256"
        },
        {
          "internalType": "uint256",
          "name": "tracksMinted",
          "type": "uint256"
        },
        {
          "internalType": "string",
          "name": "bio",
          "type": "string"
        },
        {
          "internalType": "string",
          "name": "avatarHash",
          "type": "string"
        }
      ],
      "stateMutability": "view",
      "type": "function"
    },
    {
      "inputs": [
        {
          "internalType": "string",
          "name": "title",
          "type": "string"
        },
        {
          "internalType": "string",
          "name": "description",
          "type": "string"
        },
        {
          "internalType": "uint256",
          "name": "requiredVotes",
          "type": "uint256"
        }
      ],
      "name": "createProposal",
      "outputs": [
        {
          "internalType": "uint256",
          "name": "",
          "type": "uint256"
        }
      ],
      "stateMutability": "nonpayable",
      "type": "function"
    },
    {
      "inputs": [
        {
          "internalType": "uint256",
          "name": "poolId",
          "type": "uint256"
        },
        {
          "internalType": "address",
          "name": "to",
          "type": "address"
        },
        {
          "internalType": "uint256",
          "name": "amount",
          "type": "uint256"
        },
        {
          "internalType": "string",
          "name": "reason",
          "type": "string"
        }
      ],
      "name": "distributeFromPool",
      "outputs": [],
      "stateMutability": "nonpayable",
      "type": "function"
    },
    {
      "inputs": [
        {
          "internalType": "address",
          "name": "artist",
          "type": "address"
        },
        {
          "internalType": "uint256",
          "name": "amount",
          "type": "uint256"
        },
        {
          "internalType": "string",
          "name": "reason",
          "type": "string"
        }
      ],
      "name": "distributeRewardsToArtist",
      "outputs": [],
      "stateMutability": "nonpayable",
      "type": "function"
    },
    {
      "inputs": [
        {
          "internalType": "string",
          "name": "",
          "type": "string"
        }
      ],
      "name": "genreExists",
      "outputs": [
        {
          "internalType": "bool",
          "name": "",
          "type": "bool"
        }
      ],
      "stateMutability": "view",
      "type": "function"
    },
    {
      "inputs": [
        {
          "internalType": "string",
          "name": "genre",
          "type": "string"
        }
      ],
      "name": "genreExistsCheck",
      "outputs": [
        {
          "internalType": "bool",
          "name": "",
          "type": "bool"
        }
      ],
      "stateMutability": "view",
      "type": "function"
    },
    {
      "inputs": [],
      "name": "getAllArtists",
      "outputs": [
        {
          "internalType": "address[]",
          "name": "",
          "type": "address[]"
        }
      ],
      "stateMutability": "view",
      "type": "function"
    },
    {
      "inputs": [
        {
          "internalType": "address",
          "name": "artistAddress",
          "type": "address"
        }
      ],
      "name": "getArtist",
      "outputs": [
        {
          "components": [
            {
              "internalType": "string",
              "name": "name",
              "type": "string"
            },
            {
              "internalType": "address",
              "name": "walletAddress",
              "type": "address"
            },
            {
              "internalType": "uint256",
              "name": "registrationDate",
              "type": "uint256"
            },
            {
              "internalType": "bool",
              "name": "isActive",
              "type": "bool"
            },
            {
              "internalType": "uint256",
              "name": "totalEarnings",
              "type": "uint256"
            },
            {
              "internalType": "uint256",
              "name": "tracksMinted",
              "type": "uint256"
            },
            {
              "internalType": "string",
              "name": "bio",
              "type": "string"
            },
            {
              "internalType": "string",
              "name": "avatarHash",
              "type": "string"
            }
          ],
          "internalType": "struct MusicPlatform.Artist",
          "name": "",
          "type": "tuple"
        }
      ],
      "stateMutability": "view",
      "type": "function"
    },
    {
      "inputs": [
        {
          "internalType": "uint256",
          "name": "proposalId",
          "type": "uint256"
        }
      ],
      "name": "getProposal",
      "outputs": [
        {
          "components": [
            {
              "internalType": "uint256",
              "name": "proposalId",
              "type": "uint256"
            },
            {
              "internalType": "address",
              "name": "proposer",
              "type": "address"
            },
            {
              "internalType": "string",
              "name": "title",
              "type": "string"
            },
            {
              "internalType": "string",
              "name": "description",
              "type": "string"
            },
            {
              "internalType": "uint256",
              "name": "votesFor",
              "type": "uint256"
            },
            {
              "internalType": "uint256",
              "name": "votesAgainst",
              "type": "uint256"
            },
            {
              "internalType": "uint256",
              "name": "deadline",
              "type": "uint256"
            },
            {
              "internalType": "bool",
              "name": "executed",
              "type": "bool"
            },
            {
              "internalType": "uint256",
              "name": "requiredVotes",
              "type": "uint256"
            },
            {
              "internalType": "bool",
              "name": "isCompleted",
              "type": "bool"
            }
          ],
          "internalType": "struct MusicPlatform.Proposal",
          "name": "",
          "type": "tuple"
        }
      ],
      "stateMutability": "view",
      "type": "function"
    },
    {
      "inputs": [
        {
          "internalType": "uint256",
          "name": "poolId",
          "type": "uint256"
        }
      ],
      "name": "getRewardPool",
      "outputs": [
        {
          "components": [
            {
              "internalType": "uint256",
              "name": "totalPool",
              "type": "uint256"
            },
            {
              "internalType": "uint256",
              "name": "distributedRewards",
              "type": "uint256"
            },
            {
              "internalType": "uint256",
              "name": "lastDistribution",
              "type": "uint256"
            }
          ],
          "internalType": "struct MusicPlatform.RewardPool",
          "name": "",
          "type": "tuple"
        }
      ],
      "stateMutability": "view",
      "type": "function"
    },
    {
      "inputs": [],
      "name": "governanceToken",
      "outputs": [
        {
          "internalType": "contract MusicPlatformToken",
          "name": "",
          "type": "address"
        }
      ],
      "stateMutability": "view",
      "type": "function"
    },
    {
      "inputs": [
        {
          "internalType": "address",
          "name": "",
          "type": "address"
        },
        {
          "internalType": "uint256",
          "name": "",
          "type": "uint256"
        }
      ],
      "name": "hasVoted",
      "outputs": [
        {
          "internalType": "bool",
          "name": "",
          "type": "bool"
        }
      ],
      "stateMutability": "view",
      "type": "function"
    },
    {
      "inputs": [],
      "name": "incrementActiveUsers",
      "outputs": [],
      "stateMutability": "nonpayable",
      "type": "function"
    },
    {
      "inputs": [],
      "name": "minVotingPower",
      "outputs": [
        {
          "internalType": "uint256",
          "name": "",
          "type": "uint256"
        }
      ],
      "stateMutability": "view",
      "type": "function"
    },
    {
      "inputs": [],
      "name": "owner",
      "outputs": [
        {
          "internalType": "address",
          "name": "",
          "type": "address"
        }
      ],
      "stateMutability": "view",
      "type": "function"
    },
    {
      "inputs": [],
      "name": "pause",
      "outputs": [],
      "stateMutability": "nonpayable",
      "type": "function"
    },
    {
      "inputs": [],
      "name": "paused",
      "outputs": [
        {
          "internalType": "bool",
          "name": "",
          "type": "bool"
        }
      ],
      "stateMutability": "view",
      "type": "function"
    },
    {
      "inputs": [
        {
          "internalType": "uint256",
          "name": "",
          "type": "uint256"
        }
      ],
      "name": "proposals",
      "outputs": [
        {
          "internalType": "uint256",
          "name": "proposalId",
          "type": "uint256"
        },
        {
          "internalType": "address",
          "name": "proposer",
          "type": "address"
        },
        {
          "internalType": "string",
          "name": "title",
          "type": "string"
        },
        {
          "internalType": "string",
          "name": "description",
          "type": "string"
        },
        {
          "internalType": "uint256",
          "name": "votesFor",
          "type": "uint256"
        },
        {
          "internalType": "uint256",
          "name": "votesAgainst",
          "type": "uint256"
        },
        {
          "internalType": "uint256",
          "name": "deadline",
          "type": "uint256"
        },
        {
          "internalType": "bool",
          "name": "executed",
          "type": "bool"
        },
        {
          "internalType": "uint256",
          "name": "requiredVotes",
          "type": "uint256"
        },
        {
          "internalType": "bool",
          "name": "isCompleted",
          "type": "bool"
        }
      ],
      "stateMutability": "view",
      "type": "function"
    },
    {
      "inputs": [
        {
          "internalType": "address",
          "name": "artistAddress",
          "type": "address"
        },
        {
          "internalType": "string",
          "name": "name",
          "type": "string"
        },
        {
          "internalType": "string",
          "name": "bio",
          "type": "string"
        },
        {
          "internalType": "string",
          "name": "avatarHash",
          "type": "string"
        }
      ],
      "name": "registerArtist",
      "outputs": [],
      "stateMutability": "nonpayable",
      "type": "function"
    },
    {
      "inputs": [
        {
          "internalType": "string",
          "name": "genre",
          "type": "string"
        }
      ],
      "name": "removeGenre",
      "outputs": [],
      "stateMutability": "nonpayable",
      "type": "function"
    },
    {
      "inputs": [],
      "name": "renounceOwnership",
      "outputs": [],
      "stateMutability": "nonpayable",
      "type": "function"
    },
    {
      "inputs": [
        {
          "internalType": "uint256",
          "name": "",
          "type": "uint256"
        }
      ],
      "name": "rewardPools",
      "outputs": [
        {
          "internalType": "uint256",
          "name": "totalPool",
          "type": "uint256"
        },
        {
          "internalType": "uint256",
          "name": "distributedRewards",
          "type": "uint256"
        },
        {
          "internalType": "uint256",
          "name": "lastDistribution",
          "type": "uint256"
        }
      ],
      "stateMutability": "view",
      "type": "function"
    },
    {
      "inputs": [],
      "name": "stats",
      "outputs": [
        {
          "internalType": "uint256",
          "name": "totalNFTs",
          "type": "uint256"
        },
        {
          "internalType": "uint256",
          "name": "totalArtists",
          "type": "uint256"
        },
        {
          "internalType": "uint256",
          "name": "totalRevenue",
          "type": "uint256"
        },
        {
          "internalType": "uint256",
          "name": "activeUsers",
          "type": "uint256"
        },
        {
          "internalType": "uint256",
          "name": "totalStreams",
          "type": "uint256"
        }
      ],
      "stateMutability": "view",
      "type": "function"
    },
    {
      "inputs": [],
      "name": "totalProposals",
      "outputs": [
        {
          "internalType": "uint256",
          "name": "",
          "type": "uint256"
        }
      ],
      "stateMutability": "view",
      "type": "function"
    },
    {
      "inputs": [
        {
          "internalType": "address",
          "name": "newOwner",
          "type": "address"
        }
      ],
      "name": "transferOwnership",
      "outputs": [],
      "stateMutability": "nonpayable",
      "type": "function"
    },
    {
      "inputs": [],
      "name": "unpause",
      "outputs": [],
      "stateMutability": "nonpayable",
      "type": "function"
    },
    {
      "inputs": [
        {
          "internalType": "address",
          "name": "artistAddress",
          "type": "address"
        },
        {
          "internalType": "string",
          "name": "name",
          "type": "string"
        },
        {
          "internalType": "string",
          "name": "bio",
          "type": "string"
        },
        {
          "internalType": "string",
          "name": "avatarHash",
          "type": "string"
        }
      ],
      "name": "updateArtist",
      "outputs": [],
      "stateMutability": "nonpayable",
      "type": "function"
    },
    {
      "inputs": [
        {
          "internalType": "uint256",
          "name": "totalNFTs",
          "type": "uint256"
        },
        {
          "internalType": "uint256",
          "name": "totalRevenue",
          "type": "uint256"
        },
        {
          "internalType": "uint256",
          "name": "totalStreams",
          "type": "uint256"
        }
      ],
      "name": "updatePlatformStats",
      "outputs": [],
      "stateMutability": "nonpayable",
      "type": "function"
    },
    {
      "inputs": [
        {
          "internalType": "uint256",
          "name": "proposalId",
          "type": "uint256"
        },
        {
          "internalType": "bool",
          "name": "support",
          "type": "bool"
        }
      ],
      "name": "vote",
      "outputs": [],
      "stateMutability": "nonpayable",
      "type": "function"
    },
    {
      "inputs": [],
      "name": "votingPeriod",
      "outputs": [
        {
          "internalType": "uint256",
          "name": "",
          "type": "uint256"
        }
      ],
      "stateMutability": "view",
      "type": "function"
    }
  ],
  "bytecode": "0x608060405262093a80600e55683635c9adc5dea00000600f553480156200002557600080fd5b50620000313362000281565b6000805460ff60a01b19169055600180556040516200005090620002d1565b604051809103906000f0801580156200006d573d6000803e3d6000fd5b50600280546001600160a01b0319166001600160a01b03929092169190911790556040805160a08101825260008082526020820181905281830181905260608201819052608090910181905260088190556009818155600a828155600b839055600c92909255825169456c656374726f6e696360b01b8082526006828501819052855192839003602a9081018420805460ff19908116600190811790925566048697020486f760cc1b8652600780870185905289519687900360279081018820805484168517905563526f636b60e01b885260048089018790528b519889900360249081018a208054861687179055620506f760ec1b8a526003808b018990528d519a8b900360239081018c208054881689179055632530bd3d60e11b8c52928b018990528d519a8b90039091018a2080548616871790556810db185cdcda58d85b60ba1b8a529989018790528b51988990036029018920805485168617905566436f756e74727960c81b89529188018690528a519788900301872080548316841790556229132160e91b87529686018490528851958690039096018520805487168217905592845294830181905285519283900390940182208054841682179055642630ba34b760d91b825260058201849052845191829003602501822080548416821790556552656767616560d01b8252818401939093529251928390036026019092208054909216179055620002df565b600080546001600160a01b038381166001600160a01b0319831681178455604051919092169283917f8be0079c531659141344cd1fd0a4f28419497f9722a3daafe3b4186f6b6457e09190a35050565b6111c18062002dc683390190565b612ad780620002ef6000396000f3fe608060405234801561001057600080fd5b50600436106101f05760003560e01c80635cfa91f41161010f578063c08cf68a116100a2578063ed6c0ca811610071578063ed6c0ca8146104fb578063f2fde38b1461050e578063f803ace314610521578063f96dae0a1461053657600080fd5b8063c08cf68a14610473578063c7f758a814610486578063c9d27afe146104a6578063d80528ae146104b957600080fd5b80638456cb59116100de5780638456cb591461041d5780638da5cb5b14610425578063a78d80fc1461044a578063b949c8041461045357600080fd5b80635cfa91f41461039f5780635edda569146103d4578063715018a61461040257806378c2d0d81461040a57600080fd5b806325d2cd1c116101875780633f4ba83a116101565780633f4ba83a1461030d578063425458251461031557806346abf391146103435780635c975abb1461038d57600080fd5b806325d2cd1c146102cb578063277b8ce9146102de57806336fffde0146102f15780633ef4980c146102fa57600080fd5b8063084ee3dd116101c3578063084ee3dd1461027a5780630ce0ebf41461029d5780630f235979146102b0578063170a1af9146102c357600080fd5b8063013cf08b146101f557806302a251a314610227578063069dab8f1461023e57806307a9a01e14610265575b600080fd5b610208610203366004612184565b610549565b60405161021e9a999897969594939291906121ed565b60405180910390f35b610230600e5481565b60405190815260200161021e565b61025161024c366004612281565b6106b9565b60405161021e9897969594939291906122a3565b6102786102733660046123bd565b6108a6565b005b61028d610288366004612456565b6109cc565b604051901515815260200161021e565b6102306102ab366004612493565b6109f7565b6102786102be366004612500565b610cc0565b610278610e55565b6102786102d93660046123bd565b610e74565b6102786102ec366004612555565b6110ca565b610230600f5481565b610278610308366004612456565b6110e0565b6102786111cd565b61028d610323366004612581565b600560209081526000928352604080842090915290825290205460ff1681565b610372610351366004612184565b60076020526000908152604090208054600182015460029092015490919083565b6040805193845260208401929092529082015260600161021e565b600054600160a01b900460ff1661028d565b6103b26103ad366004612184565b6111df565b604080518251815260208084015190820152918101519082015260600161021e565b61028d6103e2366004612456565b805160208183018101805160068252928201919093012091525460ff1681565b61027861123c565b6102786104183660046125ab565b61124e565b610278611291565b6000546001600160a01b03165b6040516001600160a01b03909116815260200161021e565b610230600d5481565b610466610461366004612281565b6112a1565b60405161021e91906125cd565b610278610481366004612456565b611518565b610499610494366004612184565b611532565b60405161021e919061267e565b6102786104b4366004612742565b61178f565b600854600954600a54600b54600c546104d3949392919085565b604080519586526020860194909452928401919091526060830152608082015260a00161021e565b610278610509366004612772565b611ab4565b61027861051c366004612281565b611c21565b610529611c9a565b60405161021e91906127c9565b600254610432906001600160a01b031681565b60046020526000908152604090208054600182015460028301805492936001600160a01b039092169261057b90612816565b80601f01602080910402602001604051908101604052809291908181526020018280546105a790612816565b80156105f45780601f106105c9576101008083540402835291602001916105f4565b820191906000526020600020905b8154815290600101906020018083116105d757829003601f168201915b50505050509080600301805461060990612816565b80601f016020809104026020016040519081016040528092919081815260200182805461063590612816565b80156106825780601f1061065757610100808354040283529160200191610682565b820191906000526020600020905b81548152906001019060200180831161066557829003601f168201915b505050600484015460058501546006860154600787015460088801546009909801549697939692955090935060ff9081169291168a565b6003602052600090815260409020805481906106d490612816565b80601f016020809104026020016040519081016040528092919081815260200182805461070090612816565b801561074d5780601f106107225761010080835404028352916020019161074d565b820191906000526020600020905b81548152906001019060200180831161073057829003601f168201915b505050506001830154600284015460038501546004860154600587015460068801805497986001600160a01b039096169794965060ff90931694919390929061079590612816565b80601f01602080910402602001604051908101604052809291908181526020018280546107c190612816565b801561080e5780601f106107e35761010080835404028352916020019161080e565b820191906000526020600020905b8154815290600101906020018083116107f157829003601f168201915b50505050509080600701805461082390612816565b80601f016020809104026020016040519081016040528092919081815260200182805461084f90612816565b801561089c5780601f106108715761010080835404028352916020019161089c565b820191906000526020600020905b81548152906001019060200180831161087f57829003601f168201915b5050505050905088565b6001600160a01b03841660009081526003602081905260409091200154849060ff166109115760405162461bcd60e51b8152602060048201526015602482015274105c9d1a5cdd081b9bdd081c9959da5cdd195c9959605a1b60448201526064015b60405180910390fd5b6001600160a01b0385166000908152600360205260409020610933858261289e565b506001600160a01b0385166000908152600360205260409020600601610959848261289e565b506001600160a01b038516600090815260036020526040902060070161097f838261289e565b50846001600160a01b03167f92ded5089cb8d08fe7d3a3a0583704754258b844c4f32199f1c224680be03ae88585856040516109bd9392919061295e565b60405180910390a25050505050565b60006006826040516109de9190612997565b9081526040519081900360200190205460ff1692915050565b600f546002546040516370a0823160e01b8152336004820152600092916001600160a01b0316906370a0823190602401602060405180830381865afa158015610a44573d6000803e3d6000fd5b505050506040513d601f19601f82011682018060405250810190610a6891906129b3565b1015610ab65760405162461bcd60e51b815260206004820152601960248201527f496e73756666696369656e7420766f74696e6720706f776572000000000000006044820152606401610908565b6000845111610aff5760405162461bcd60e51b81526020600482015260156024820152745469746c652063616e6e6f7420626520656d70747960581b6044820152606401610908565b6000835111610b505760405162461bcd60e51b815260206004820152601b60248201527f4465736372697074696f6e2063616e6e6f7420626520656d70747900000000006044820152606401610908565b600d8054906000610b60836129e2565b9091555050600d5460408051610140810182528281523360208201529081018690526060810185905260006080820181905260a0820152600e5460c0820190610ba990426129fb565b81526000602080830182905260408084018890526060909301829052848252600481529082902083518155908301516001820180546001600160a01b0319166001600160a01b03909216919091179055908201516002820190610c0c908261289e565b5060608201516003820190610c21908261289e565b506080820151600482015560a0820151600582015560c0820151600682015560e082015160078201805491151560ff199283161790556101008301516008830155610120909201516009909101805491151591909216179055604051339082907fe1a39bb955c12c02b24074e4d2e09a80ed84a64ce9b4454b47456e8a26f96e7590610cb09089908990612a14565b60405180910390a3949350505050565b610cc8611dc6565b610cd0611e20565b600084815260076020526040902054821115610d2e5760405162461bcd60e51b815260206004820152601960248201527f496e73756666696369656e7420706f6f6c2062616c616e6365000000000000006044820152606401610908565b60008481526007602052604081208054849290610d4c908490612a42565b909155505060008481526007602052604081206001018054849290610d729084906129fb565b9091555050600084815260076020526040908190204260029182015554905163a9059cbb60e01b81526001600160a01b038581166004830152602482018590529091169063a9059cbb906044016020604051808303816000875af1158015610dde573d6000803e3d6000fd5b505050506040513d601f19601f82011682018060405250810190610e029190612a55565b50826001600160a01b03167f49649141d16971a88c3cfdd73fec34babb1cf163cf8b804c8f537a023c6ce5068383604051610e3e929190612a72565b60405180910390a2610e4f60018055565b50505050565b610e5d611dc6565b600b8054906000610e6d836129e2565b9190505550565b610e7c611e79565b6001600160a01b038416610ecb5760405162461bcd60e51b8152602060048201526016602482015275496e76616c696420617274697374206164647265737360501b6044820152606401610908565b6001600160a01b0384166000908152600360208190526040909120015460ff1615610f385760405162461bcd60e51b815260206004820152601960248201527f41727469737420616c72656164792072656769737465726564000000000000006044820152606401610908565b6000835111610f805760405162461bcd60e51b81526020600482015260146024820152734e616d652063616e6e6f7420626520656d70747960601b6044820152606401610908565b60408051610100810182528481526001600160a01b038616602080830182905242838501526001606084015260006080840181905260a0840181905260c0840187905260e08401869052918252600390529190912081518190610fe3908261289e565b5060208201516001820180546001600160a01b0319166001600160a01b0390921691909117905560408201516002820155606082015160038201805460ff19169115159190911790556080820151600482015560a0820151600582015560c08201516006820190611054908261289e565b5060e08201516007820190611069908261289e565b5050600980549150600061107c836129e2565b9190505550836001600160a01b03167f3b8cc2a9ce5f30dcaf9dc4ecb003d17fad34e58387858af5ff33344d3a5dfc1784846040516110bc929190612a14565b60405180910390a250505050565b6110d2611dc6565b600892909255600a55600c55565b6110e8611dc6565b60008151116111315760405162461bcd60e51b815260206004820152601560248201527447656e72652063616e6e6f7420626520656d70747960581b6044820152606401610908565b6006816040516111419190612997565b9081526040519081900360200190205460ff16156111985760405162461bcd60e51b815260206004820152601460248201527347656e726520616c72656164792065786973747360601b6044820152606401610908565b60016006826040516111aa9190612997565b908152604051908190036020019020805491151560ff1990921691909117905550565b6111d5611dc6565b6111dd611ec6565b565b61120360405180606001604052806000815260200160008152602001600081525090565b50600090815260076020908152604091829020825160608101845281548152600182015492810192909252600201549181019190915290565b611244611dc6565b6111dd6000611f1b565b611256611dc6565b600082815260076020526040812080548392906112749084906129fb565b909155505050600090815260076020526040902042600290910155565b611299611dc6565b6111dd611f6b565b6112f46040518061010001604052806060815260200160006001600160a01b0316815260200160008152602001600015158152602001600081526020016000815260200160608152602001606081525090565b6001600160a01b038216600090815260036020526040908190208151610100810190925280548290829061132790612816565b80601f016020809104026020016040519081016040528092919081815260200182805461135390612816565b80156113a05780601f10611375576101008083540402835291602001916113a0565b820191906000526020600020905b81548152906001019060200180831161138357829003601f168201915b505050918352505060018201546001600160a01b0316602082015260028201546040820152600382015460ff161515606082015260048201546080820152600582015460a082015260068201805460c0909201916113fd90612816565b80601f016020809104026020016040519081016040528092919081815260200182805461142990612816565b80156114765780601f1061144b57610100808354040283529160200191611476565b820191906000526020600020905b81548152906001019060200180831161145957829003601f168201915b5050505050815260200160078201805461148f90612816565b80601f01602080910402602001604051908101604052809291908181526020018280546114bb90612816565b80156115085780601f106114dd57610100808354040283529160200191611508565b820191906000526020600020905b8154815290600101906020018083116114eb57829003601f168201915b5050505050815250509050919050565b611520611dc6565b60006006826040516111aa9190612997565b6115956040518061014001604052806000815260200160006001600160a01b031681526020016060815260200160608152602001600081526020016000815260200160008152602001600015158152602001600081526020016000151581525090565b600d548211156115e15760405162461bcd60e51b8152602060048201526017602482015276141c9bdc1bdcd85b08191bd95cc81b9bdd08195e1a5cdd604a1b6044820152606401610908565b6000828152600460209081526040918290208251610140810184528154815260018201546001600160a01b031692810192909252600281018054929391929184019161162c90612816565b80601f016020809104026020016040519081016040528092919081815260200182805461165890612816565b80156116a55780601f1061167a576101008083540402835291602001916116a5565b820191906000526020600020905b81548152906001019060200180831161168857829003601f168201915b505050505081526020016003820180546116be90612816565b80601f01602080910402602001604051908101604052809291908181526020018280546116ea90612816565b80156117375780601f1061170c57610100808354040283529160200191611737565b820191906000526020600020905b81548152906001019060200180831161171a57829003601f168201915b5050509183525050600482015460208201526005820154604082015260068201546060820152600782015460ff90811615156080830152600883015460a0830152600990920154909116151560c09091015292915050565b611797611e20565b600d548211156117e35760405162461bcd60e51b8152602060048201526017602482015276141c9bdc1bdcd85b08191bd95cc81b9bdd08195e1a5cdd604a1b6044820152606401610908565b60008281526004602052604090206007015460ff16156118415760405162461bcd60e51b8152602060048201526019602482015278141c9bdc1bdcd85b08185b1c9958591e48195e1958dd5d1959603a1b6044820152606401610908565b6000828152600460205260409020600601544211156118985760405162461bcd60e51b8152602060048201526013602482015272159bdd1a5b99c81c195c9a5bd908195b991959606a1b6044820152606401610908565b33600090815260056020908152604080832085845290915290205460ff16156118f35760405162461bcd60e51b815260206004820152600d60248201526c105b1c9958591e481d9bdd1959609a1b6044820152606401610908565b6002546040516370a0823160e01b81523360048201526000916001600160a01b0316906370a0823190602401602060405180830381865afa15801561193c573d6000803e3d6000fd5b505050506040513d601f19601f8201168201806040525081019061196091906129b3565b9050600081116119a45760405162461bcd60e51b815260206004820152600f60248201526e2737903b37ba34b733903837bbb2b960891b6044820152606401610908565b3360009081526005602090815260408083208684529091529020805460ff1916600117905581156119fb57600083815260046020819052604082200180548392906119f09084906129fb565b90915550611a229050565b60008381526004602052604081206005018054839290611a1c9084906129fb565b90915550505b60408051831515815260208101839052339185917f7c2de587c00d75474a0c6c6fa96fd3b45dc974cd4e8a75f712bb84c950dce1b5910160405180910390a36000838152600460205260409020600601544210801590611a98575060008381526004602081905260409091206005810154910154115b15611aa657611aa683611fae565b50611ab060018055565b5050565b611abc611dc6565b611ac4611e20565b6001600160a01b0383166000908152600360208190526040909120015460ff16611b285760405162461bcd60e51b8152602060048201526015602482015274105c9d1a5cdd081b9bdd081c9959da5cdd195c9959605a1b6044820152606401610908565b6001600160a01b03831660009081526003602052604081206004018054849290611b539084906129fb565b909155505060025460405163a9059cbb60e01b81526001600160a01b038581166004830152602482018590529091169063a9059cbb906044016020604051808303816000875af1158015611bab573d6000803e3d6000fd5b505050506040513d601f19601f82011682018060405250810190611bcf9190612a55565b50826001600160a01b03167f49649141d16971a88c3cfdd73fec34babb1cf163cf8b804c8f537a023c6ce5068383604051611c0b929190612a72565b60405180910390a2611c1c60018055565b505050565b611c29611dc6565b6001600160a01b038116611c8e5760405162461bcd60e51b815260206004820152602660248201527f4f776e61626c653a206e6577206f776e657220697320746865207a65726f206160448201526564647265737360d01b6064820152608401610908565b611c9781611f1b565b50565b6060600060015b612710811015611cf3576001600160a01b03811660009081526003602081905260409091200154819060ff1615611ce05782611cdc816129e2565b9350505b5080611ceb816129e2565b915050611ca1565b5060008167ffffffffffffffff811115611d0f57611d0f61231a565b604051908082528060200260200182016040528015611d38578160200160208202803683370190505b509050600060015b612710811015611dbd576001600160a01b03811660009081526003602081905260409091200154819060ff1615611daa5780848481518110611d8457611d84612a8b565b6001600160a01b039092166020928302919091019091015282611da6816129e2565b9350505b5080611db5816129e2565b915050611d40565b50909392505050565b6000546001600160a01b031633146111dd5760405162461bcd60e51b815260206004820181905260248201527f4f776e61626c653a2063616c6c6572206973206e6f7420746865206f776e65726044820152606401610908565b600260015403611e725760405162461bcd60e51b815260206004820152601f60248201527f5265656e7472616e637947756172643a207265656e7472616e742063616c6c006044820152606401610908565b6002600155565b600054600160a01b900460ff16156111dd5760405162461bcd60e51b815260206004820152601060248201526f14185d5cd8589b194e881c185d5cd95960821b6044820152606401610908565b611ece612134565b6000805460ff60a01b191690557f5db9ee0a495bf2e6ff9c91a7834c1ba4fdd244a5e8aa4e537bd38aeae4b073aa335b6040516001600160a01b03909116815260200160405180910390a1565b600080546001600160a01b038381166001600160a01b0319831681178455604051919092169283917f8be0079c531659141344cd1fd0a4f28419497f9722a3daafe3b4186f6b6457e09190a35050565b611f73611e79565b6000805460ff60a01b1916600160a01b1790557f62e78cea01bee320cd4e420270b5ea74000d11b0c9f74754ebdbfc544b05a258611efe3390565b600081815260046020819052604090912060058101549101541161200c5760405162461bcd60e51b815260206004820152601560248201527450726f706f73616c20646964206e6f74207061737360581b6044820152606401610908565b60008181526004602052604090206007015460ff161561206a5760405162461bcd60e51b8152602060048201526019602482015278141c9bdc1bdcd85b08185b1c9958591e48195e1958dd5d1959603a1b6044820152606401610908565b6000818152600460205260409020600601544210156120cb5760405162461bcd60e51b815260206004820152601760248201527f566f74696e6720706572696f64206e6f7420656e6465640000000000000000006044820152606401610908565b600081815260046020908152604091829020600781018054600160ff199182168117909255600990920180549092168117909155915191825282917f948f4a9cd986f1118c3fbd459f7a22b23c0693e1ca3ef06a6a8be5aa7d39cc03910160405180910390a250565b600054600160a01b900460ff166111dd5760405162461bcd60e51b815260206004820152601460248201527314185d5cd8589b194e881b9bdd081c185d5cd95960621b6044820152606401610908565b60006020828403121561219657600080fd5b5035919050565b60005b838110156121b85781810151838201526020016121a0565b50506000910152565b600081518084526121d981602086016020860161219d565b601f01601f19169290920160200192915050565b8a81526001600160a01b038a166020820152610140604082018190526000906122188382018c6121c1565b9050828103606084015261222c818b6121c1565b6080840199909952505060a081019590955260c085019390935290151560e0840152610100830152151561012090910152949350505050565b80356001600160a01b038116811461227c57600080fd5b919050565b60006020828403121561229357600080fd5b61229c82612265565b9392505050565b60006101008083526122b78184018c6121c1565b6001600160a01b038b166020850152604084018a905288151560608501526080840188905260a0840187905283810360c085015290506122f781866121c1565b905082810360e084015261230b81856121c1565b9b9a5050505050505050505050565b634e487b7160e01b600052604160045260246000fd5b600082601f83011261234157600080fd5b813567ffffffffffffffff8082111561235c5761235c61231a565b604051601f8301601f19908116603f011681019082821181831017156123845761238461231a565b8160405283815286602085880101111561239d57600080fd5b836020870160208301376000602085830101528094505050505092915050565b600080600080608085870312156123d357600080fd5b6123dc85612265565b9350602085013567ffffffffffffffff808211156123f957600080fd5b61240588838901612330565b9450604087013591508082111561241b57600080fd5b61242788838901612330565b9350606087013591508082111561243d57600080fd5b5061244a87828801612330565b91505092959194509250565b60006020828403121561246857600080fd5b813567ffffffffffffffff81111561247f57600080fd5b61248b84828501612330565b949350505050565b6000806000606084860312156124a857600080fd5b833567ffffffffffffffff808211156124c057600080fd5b6124cc87838801612330565b945060208601359150808211156124e257600080fd5b506124ef86828701612330565b925050604084013590509250925092565b6000806000806080858703121561251657600080fd5b8435935061252660208601612265565b925060408501359150606085013567ffffffffffffffff81111561254957600080fd5b61244a87828801612330565b60008060006060848603121561256a57600080fd5b505081359360208301359350604090920135919050565b6000806040838503121561259457600080fd5b61259d83612265565b946020939093013593505050565b600080604083850312156125be57600080fd5b50508035926020909101359150565b60208152600082516101008060208501526125ec6101208501836121c1565b9150602085015161260860408601826001600160a01b03169052565b50604085015160608501526060850151612626608086018215159052565b50608085015160a085015260a085015160c085015260c0850151601f19808685030160e087015261265784836121c1565b935060e087015191508086850301838701525061267483826121c1565b9695505050505050565b6020815281516020820152600060208301516126a560408401826001600160a01b03169052565b5060408301516101408060608501526126c26101608501836121c1565b91506060850151601f198584030160808601526126df83826121c1565b925050608085015160a085015260a085015160c085015260c085015160e085015260e08501516101006127158187018315159052565b8601516101208681019190915290950151151593019290925250919050565b8015158114611c9757600080fd5b6000806040838503121561275557600080fd5b82359150602083013561276781612734565b809150509250929050565b60008060006060848603121561278757600080fd5b61279084612265565b925060208401359150604084013567ffffffffffffffff8111156127b357600080fd5b6127bf86828701612330565b9150509250925092565b6020808252825182820181905260009190848201906040850190845b8181101561280a5783516001600160a01b0316835292840192918401916001016127e5565b50909695505050505050565b600181811c9082168061282a57607f821691505b60208210810361284a57634e487b7160e01b600052602260045260246000fd5b50919050565b601f821115611c1c57600081815260208120601f850160051c810160208610156128775750805b601f850160051c820191505b8181101561289657828155600101612883565b505050505050565b815167ffffffffffffffff8111156128b8576128b861231a565b6128cc816128c68454612816565b84612850565b602080601f83116001811461290157600084156128e95750858301515b600019600386901b1c1916600185901b178555612896565b600085815260208120601f198616915b8281101561293057888601518255948401946001909101908401612911565b508582101561294e5787850151600019600388901b60f8161c191681555b5050505050600190811b01905550565b60608152600061297160608301866121c1565b828103602084015261298381866121c1565b9050828103604084015261267481856121c1565b600082516129a981846020870161219d565b9190910192915050565b6000602082840312156129c557600080fd5b5051919050565b634e487b7160e01b600052601160045260246000fd5b6000600182016129f4576129f46129cc565b5060010190565b80820180821115612a0e57612a0e6129cc565b92915050565b604081526000612a2760408301856121c1565b8281036020840152612a3981856121c1565b95945050505050565b81810381811115612a0e57612a0e6129cc565b600060208284031215612a6757600080fd5b815161229c81612734565b82815260406020820152600061248b60408301846121c1565b634e487b7160e01b600052603260045260246000fdfea26469706673582212203caff16fa40809d416cf45b97ec30c46da3a6f4b960e99a5b7fc26c89338c5d264736f6c6343000813003360806040523480156200001157600080fd5b506040518060400160405280601481526020017f4d7573696320506c6174666f726d20546f6b656e0000000000000000000000008152506040518060400160405280600381526020016213541560ea1b81525081600390816200007591906200028f565b5060046200008482826200028f565b505050620000a16200009b620000ca60201b60201c565b620000ce565b6005805460ff60a01b19169055620000c43369d3c21bcecceda100000062000120565b62000383565b3390565b600580546001600160a01b038381166001600160a01b0319831681179093556040519116919082907f8be0079c531659141344cd1fd0a4f28419497f9722a3daafe3b4186f6b6457e090600090a35050565b6001600160a01b0382166200017b5760405162461bcd60e51b815260206004820152601f60248201527f45524332303a206d696e7420746f20746865207a65726f206164647265737300604482015260640160405180910390fd5b80600260008282546200018f91906200035b565b90915550506001600160a01b038216600081815260208181526040808320805486019055518481527fddf252ad1be2c89b69c2b068fc378daa952ba7f163c4a11628f55a4df523b3ef910160405180910390a35050565b505050565b634e487b7160e01b600052604160045260246000fd5b600181811c908216806200021657607f821691505b6020821081036200023757634e487b7160e01b600052602260045260246000fd5b50919050565b601f821115620001e657600081815260208120601f850160051c81016020861015620002665750805b601f850160051c820191505b81811015620002875782815560010162000272565b505050505050565b81516001600160401b03811115620002ab57620002ab620001eb565b620002c381620002bc845462000201565b846200023d565b602080601f831160018114620002fb5760008415620002e25750858301515b600019600386901b1c1916600185901b17855562000287565b600085815260208120601f198616915b828110156200032c578886015182559484019460019091019084016200030b565b50858210156200034b5787850151600019600388901b60f8161c191681555b5050505050600190811b01905550565b808201808211156200037d57634e487b7160e01b600052601160045260246000fd5b92915050565b610e2e80620003936000396000f3fe608060405234801561001057600080fd5b506004361061012c5760003560e01c806370a08231116100ad57806395d89b411161007157806395d89b4114610262578063a457c2d71461026a578063a9059cbb1461027d578063dd62ed3e14610290578063f2fde38b146102a357600080fd5b806370a08231146101fb578063715018a61461022457806379cc67901461022c5780638456cb591461023f5780638da5cb5b1461024757600080fd5b806339509351116100f457806339509351146101a65780633f4ba83a146101b957806340c10f19146101c357806342966c68146101d65780635c975abb146101e957600080fd5b806306fdde0314610131578063095ea7b31461014f57806318160ddd1461017257806323b872dd14610184578063313ce56714610197575b600080fd5b6101396102b6565b6040516101469190610c5f565b60405180910390f35b61016261015d366004610cc9565b610348565b6040519015158152602001610146565b6002545b604051908152602001610146565b610162610192366004610cf3565b610362565b60405160128152602001610146565b6101626101b4366004610cc9565b610386565b6101c16103a8565b005b6101c16101d1366004610cc9565b6103ba565b6101c16101e4366004610d2f565b6103d0565b600554600160a01b900460ff16610162565b610176610209366004610d48565b6001600160a01b031660009081526020819052604090205490565b6101c16103dd565b6101c161023a366004610cc9565b6103ef565b6101c1610404565b6005546040516001600160a01b039091168152602001610146565b610139610414565b610162610278366004610cc9565b610423565b61016261028b366004610cc9565b6104a3565b61017661029e366004610d6a565b6104b1565b6101c16102b1366004610d48565b6104dc565b6060600380546102c590610d9d565b80601f01602080910402602001604051908101604052809291908181526020018280546102f190610d9d565b801561033e5780601f106103135761010080835404028352916020019161033e565b820191906000526020600020905b81548152906001019060200180831161032157829003601f168201915b5050505050905090565b600033610356818585610552565b60019150505b92915050565b600033610370858285610677565b61037b8585856106f1565b506001949350505050565b60003361035681858561039983836104b1565b6103a39190610dd7565b610552565b6103b0610895565b6103b86108ef565b565b6103c2610895565b6103cc8282610944565b5050565b6103da3382610a03565b50565b6103e5610895565b6103b86000610b2d565b6103fa823383610677565b6103cc8282610a03565b61040c610895565b6103b8610b7f565b6060600480546102c590610d9d565b6000338161043182866104b1565b9050838110156104965760405162461bcd60e51b815260206004820152602560248201527f45524332303a2064656372656173656420616c6c6f77616e63652062656c6f77604482015264207a65726f60d81b60648201526084015b60405180910390fd5b61037b8286868403610552565b6000336103568185856106f1565b6001600160a01b03918216600090815260016020908152604080832093909416825291909152205490565b6104e4610895565b6001600160a01b0381166105495760405162461bcd60e51b815260206004820152602660248201527f4f776e61626c653a206e6577206f776e657220697320746865207a65726f206160448201526564647265737360d01b606482015260840161048d565b6103da81610b2d565b6001600160a01b0383166105b45760405162461bcd60e51b8152602060048201526024808201527f45524332303a20617070726f76652066726f6d20746865207a65726f206164646044820152637265737360e01b606482015260840161048d565b6001600160a01b0382166106155760405162461bcd60e51b815260206004820152602260248201527f45524332303a20617070726f766520746f20746865207a65726f206164647265604482015261737360f01b606482015260840161048d565b6001600160a01b0383811660008181526001602090815260408083209487168084529482529182902085905590518481527f8c5be1e5ebec7d5bd14f71427d1e84f3dd0314c0f7b2291e5b200ac8c7c3b92591015b60405180910390a3505050565b600061068384846104b1565b905060001981146106eb57818110156106de5760405162461bcd60e51b815260206004820152601d60248201527f45524332303a20696e73756666696369656e7420616c6c6f77616e6365000000604482015260640161048d565b6106eb8484848403610552565b50505050565b6001600160a01b0383166107555760405162461bcd60e51b815260206004820152602560248201527f45524332303a207472616e736665722066726f6d20746865207a65726f206164604482015264647265737360d81b606482015260840161048d565b6001600160a01b0382166107b75760405162461bcd60e51b815260206004820152602360248201527f45524332303a207472616e7366657220746f20746865207a65726f206164647260448201526265737360e81b606482015260840161048d565b6001600160a01b0383166000908152602081905260409020548181101561082f5760405162461bcd60e51b815260206004820152602660248201527f45524332303a207472616e7366657220616d6f756e7420657863656564732062604482015265616c616e636560d01b606482015260840161048d565b6001600160a01b03848116600081815260208181526040808320878703905593871680835291849020805487019055925185815290927fddf252ad1be2c89b69c2b068fc378daa952ba7f163c4a11628f55a4df523b3ef910160405180910390a36106eb565b6005546001600160a01b031633146103b85760405162461bcd60e51b815260206004820181905260248201527f4f776e61626c653a2063616c6c6572206973206e6f7420746865206f776e6572604482015260640161048d565b6108f7610bc2565b6005805460ff60a01b191690557f5db9ee0a495bf2e6ff9c91a7834c1ba4fdd244a5e8aa4e537bd38aeae4b073aa335b6040516001600160a01b03909116815260200160405180910390a1565b6001600160a01b03821661099a5760405162461bcd60e51b815260206004820152601f60248201527f45524332303a206d696e7420746f20746865207a65726f206164647265737300604482015260640161048d565b80600260008282546109ac9190610dd7565b90915550506001600160a01b038216600081815260208181526040808320805486019055518481527fddf252ad1be2c89b69c2b068fc378daa952ba7f163c4a11628f55a4df523b3ef910160405180910390a35050565b6001600160a01b038216610a635760405162461bcd60e51b815260206004820152602160248201527f45524332303a206275726e2066726f6d20746865207a65726f206164647265736044820152607360f81b606482015260840161048d565b6001600160a01b03821660009081526020819052604090205481811015610ad75760405162461bcd60e51b815260206004820152602260248201527f45524332303a206275726e20616d6f756e7420657863656564732062616c616e604482015261636560f01b606482015260840161048d565b6001600160a01b0383166000818152602081815260408083208686039055600280548790039055518581529192917fddf252ad1be2c89b69c2b068fc378daa952ba7f163c4a11628f55a4df523b3ef910161066a565b600580546001600160a01b038381166001600160a01b0319831681179093556040519116919082907f8be0079c531659141344cd1fd0a4f28419497f9722a3daafe3b4186f6b6457e090600090a35050565b610b87610c12565b6005805460ff60a01b1916600160a01b1790557f62e78cea01bee320cd4e420270b5ea74000d11b0c9f74754ebdbfc544b05a2586109273390565b600554600160a01b900460ff166103b85760405162461bcd60e51b815260206004820152601460248201527314185d5cd8589b194e881b9bdd081c185d5cd95960621b604482015260640161048d565b600554600160a01b900460ff16156103b85760405162461bcd60e51b815260206004820152601060248201526f14185d5cd8589b194e881c185d5cd95960821b604482015260640161048d565b600060208083528351808285015260005b81811015610c8c57858101830151858201604001528201610c70565b506000604082860101526040601f19601f8301168501019250505092915050565b80356001600160a01b0381168114610cc457600080fd5b919050565b60008060408385031215610cdc57600080fd5b610ce583610cad565b946020939093013593505050565b600080600060608486031215610d0857600080fd5b610d1184610cad565b9250610d1f60208501610cad565b9150604084013590509250925092565b600060208284031215610d4157600080fd5b5035919050565b600060208284031215610d5a57600080fd5b610d6382610cad565b9392505050565b60008060408385031215610d7d57600080fd5b610d8683610cad565b9150610d9460208401610cad565b90509250929050565b600181811c90821680610db157607f821691505b602082108103610dd157634e487b7160e01b600052602260045260246000fd5b50919050565b8082018082111561035c57634e487b7160e01b600052601160045260246000fdfea26469706673582212207f1dd591d385da05f112912f91d22cdc557097da0b7261a3cec3116317adaf6b64736f6c63430008130033",
  "linkReferences": {},
  "deployedLinkReferences": {}
}