{
  "_format": "hh-sol-artifact-1",
  "contractName": "MusicStaking",
  "sourceName": "src/Staking.sol",
  "abi": [
    {
      "inputs": [
        {
          "internalType": "address",
          "name": "_stakingToken",
          "type": "address"
        }
      ],
      "stateMutability": "nonpayable",
      "type": "constructor"
    },
    {
      "anonymous": false,
      "inputs": [
        {
          "indexed": true,
          "internalType": "address",
          "name": "previousOwner",
          "type": "address"
        },
        {
          "indexed": true,
          "internalType": "address",
          "name": "newOwner",
          "type": "address"
        }
      ],
      "name": "OwnershipTransferred",
      "type": "event"
    },
    {
      "anonymous": false,
      "inputs": [
        {
          "indexed": false,
          "internalType": "address",
          "name": "account",
          "type": "address"
        }
      ],
      "name": "Paused",
      "type": "event"
    },
    {
      "anonymous": false,
      "inputs": [
        {
          "indexed": false,
          "internalType": "uint256",
          "name": "newPoolAmount",
          "type": "uint256"
        },
        {
          "indexed": false,
          "internalType": "uint256",
          "name": "newRewardRate",
          "type": "uint256"
        }
      ],
      "name": "RewardPoolUpdated",
      "type": "event"
    },
    {
      "anonymous": false,
      "inputs": [
        {
          "indexed": true,
          "internalType": "uint256",
          "name": "stakeId",
          "type": "uint256"
        },
        {
          "indexed": true,
          "internalType": "address",
          "name": "staker",
          "type": "address"
        },
        {
          "indexed": false,
          "internalType": "uint256",
          "name": "rewardAmount",
          "type": "uint256"
        }
      ],
      "name": "RewardsClaimed",
      "type": "event"
    },
    {
      "anonymous": false,
      "inputs": [
        {
          "indexed": true,
          "internalType": "uint256",
          "name": "stakeId",
          "type": "uint256"
        },
        {
          "indexed": true,
          "internalType": "address",
          "name": "staker",
          "type": "address"
        },
        {
          "indexed": false,
          "internalType": "uint256",
          "name": "amount",
          "type": "uint256"
        },
        {
          "indexed": false,
          "internalType": "uint256",
          "name": "lockPeriodSeconds",
          "type": "uint256"
        },
        {
          "indexed": false,
          "internalType": "uint256",
          "name": "rewardRate",
          "type": "uint256"
        }
      ],
      "name": "Staked",
      "type": "event"
    },
    {
      "anonymous": false,
      "inputs": [
        {
          "indexed": true,
          "internalType": "enum MusicStaking.LockPeriod",
          "name": "period",
          "type": "uint8"
        },
        {
          "indexed": false,
          "internalType": "uint256",
          "name": "minAmount",
          "type": "uint256"
        },
        {
          "indexed": false,
          "internalType": "uint256",
          "name": "baseAPY",
          "type": "uint256"
        },
        {
          "indexed": false,
          "internalType": "uint256",
          "name": "bonusMultiplier",
          "type": "uint256"
        }
      ],
      "name": "StakingTierUpdated",
      "type": "event"
    },
    {
      "anonymous": false,
      "inputs": [
        {
          "indexed": false,
          "internalType": "address",
          "name": "account",
          "type": "address"
        }
      ],
      "name": "Unpaused",
      "type": "event"
    },
    {
      "anonymous": false,
      "inputs": [
        {
          "indexed": true,
          "internalType": "uint256",
          "name": "stakeId",
          "type": "uint256"
        },
        {
          "indexed": true,
          "internalType": "address",
          "name": "staker",
          "type": "address"
        },
        {
          "indexed": false,
          "internalType": "uint256",
          "name": "principalAmount",
          "type": "uint256"
        },
        {
          "indexed": false,
          "internalType": "uint256",
          "name": "rewardAmount",
          "type": "uint256"
        }
      ],
      "name": "Withdrawn",
      "type": "event"
    },
    {
      "inputs": [],
      "name": "PRECISION",
      "outputs": [
        {
          "internalType": "uint256",
          "name": "",
          "type": "uint256"
        }
      ],
      "stateMutability": "view",
      "type": "function"
    },
    {
      "inputs": [],
      "name": "SECONDS_PER_YEAR",
      "outputs": [
        {
          "internalType": "uint256",
          "name": "",
          "type": "uint256"
        }
      ],
      "stateMutability": "view",
      "type": "function"
    },
    {
      "inputs": [
        {
          "internalType": "uint256",
          "name": "amount",
          "type": "uint256"
        }
      ],
      "name": "addToRewardPool",
      "outputs": [],
      "stateMutability": "nonpayable",
      "type": "function"
    },
    {
      "inputs": [
        {
          "internalType": "uint256",
          "name": "stakeId",
          "type": "uint256"
        }
      ],
      "name": "claimRewards",
      "outputs": [],
      "stateMutability": "nonpayable",
      "type": "function"
    },
    {
      "inputs": [],
      "name": "earlyWithdrawalPenalty",
      "outputs": [
        {
          "internalType": "uint256",
          "name": "",
          "type": "uint256"
        }
      ],
      "stateMutability": "view",
      "type": "function"
    },
    {
      "inputs": [
        {
          "internalType": "address",
          "name": "token",
          "type": "address"
        },
        {
          "internalType": "uint256",
          "name": "amount",
          "type": "uint256"
        }
      ],
      "name": "emergencyTokenRecovery",
      "outputs": [],
      "stateMutability": "nonpayable",
      "type": "function"
    },
    {
      "inputs": [
        {
          "internalType": "uint256",
          "name": "stakeId",
          "type": "uint256"
        }
      ],
      "name": "getPendingRewards",
      "outputs": [
        {
          "internalType": "uint256",
          "name": "",
          "type": "uint256"
        }
      ],
      "stateMutability": "view",
      "type": "function"
    },
    {
      "inputs": [
        {
          "internalType": "uint256",
          "name": "stakeId",
          "type": "uint256"
        }
      ],
      "name": "getStakingPosition",
      "outputs": [
        {
          "components": [
            {
              "internalType": "uint256",
              "name": "stakeId",
              "type": "uint256"
            },
            {
              "internalType": "address",
              "name": "staker",
              "type": "address"
            },
            {
              "internalType": "uint256",
              "name": "amount",
              "type": "uint256"
            },
            {
              "internalType": "uint256",
              "name": "lockPeriodSeconds",
              "type": "uint256"
            },
            {
              "internalType": "uint256",
              "name": "startTime",
              "type": "uint256"
            },
            {
              "internalType": "uint256",
              "name": "endTime",
              "type": "uint256"
            },
            {
              "internalType": "uint256",
              "name": "lastClaimTime",
              "type": "uint256"
            },
            {
              "internalType": "uint256",
              "name": "totalRewards",
              "type": "uint256"
            },
            {
              "internalType": "uint256",
              "name": "rewardRate",
              "type": "uint256"
            },
            {
              "internalType": "bool",
              "name": "isActive",
              "type": "bool"
            },
            {
              "internalType": "bool",
              "name": "isEarlyWithdrawalPenalty",
              "type": "bool"
            },
            {
              "internalType": "enum MusicStaking.LockPeriod",
              "name": "lockPeriod",
              "type": "uint8"
            }
          ],
          "internalType": "struct MusicStaking.StakingPosition",
          "name": "",
          "type": "tuple"
        }
      ],
      "stateMutability": "view",
      "type": "function"
    },
    {
      "inputs": [
        {
          "internalType": "address",
          "name": "user",
          "type": "address"
        }
      ],
      "name": "getUserStakes",
      "outputs": [
        {
          "internalType": "uint256[]",
          "name": "",
          "type": "uint256[]"
        }
      ],
      "stateMutability": "view",
      "type": "function"
    },
    {
      "inputs": [
        {
          "internalType": "address",
          "name": "user",
          "type": "address"
        }
      ],
      "name": "getUserStakingInfo",
      "outputs": [
        {
          "internalType": "uint256",
          "name": "totalStaked",
          "type": "uint256"
        },
        {
          "internalType": "uint256",
          "name": "totalPendingRewards",
          "type": "uint256"
        }
      ],
      "stateMutability": "view",
      "type": "function"
    },
    {
      "inputs": [
        {
          "internalType": "uint256",
          "name": "",
          "type": "uint256"
        }
      ],
      "name": "lockPeriodDurations",
      "outputs": [
        {
          "internalType": "uint256",
          "name": "",
          "type": "uint256"
        }
      ],
      "stateMutability": "view",
      "type": "function"
    },
    {
      "inputs": [],
      "name": "owner",
      "outputs": [
        {
          "internalType": "address",
          "name": "",
          "type": "address"
        }
      ],
      "stateMutability": "view",
      "type": "function"
    },
    {
      "inputs": [],
      "name": "pause",
      "outputs": [],
      "stateMutability": "nonpayable",
      "type": "function"
    },
    {
      "inputs": [],
      "name": "paused",
      "outputs": [
        {
          "internalType": "bool",
          "name": "",
          "type": "bool"
        }
      ],
      "stateMutability": "view",
      "type": "function"
    },
    {
      "inputs": [],
      "name": "renounceOwnership",
      "outputs": [],
      "stateMutability": "nonpayable",
      "type": "function"
    },
    {
      "inputs": [],
      "name": "rewardPool",
      "outputs": [
        {
          "internalType": "uint256",
          "name": "totalPool",
          "type": "uint256"
        },
        {
          "internalType": "uint256",
          "name": "distributedRewards",
          "type": "uint256"
        },
        {
          "internalType": "uint256",
          "name": "lastUpdate",
          "type": "uint256"
        },
        {
          "internalType": "uint256",
          "name": "totalStaked",
          "type": "uint256"
        },
        {
          "internalType": "uint256",
          "name": "rewardRate",
          "type": "uint256"
        }
      ],
      "stateMutability": "view",
      "type": "function"
    },
    {
      "inputs": [
        {
          "internalType": "uint256",
          "name": "amount",
          "type": "uint256"
        },
        {
          "internalType": "enum MusicStaking.LockPeriod",
          "name": "lockPeriod",
          "type": "uint8"
        }
      ],
      "name": "stake",
      "outputs": [
        {
          "internalType": "uint256",
          "name": "",
          "type": "uint256"
        }
      ],
      "stateMutability": "nonpayable",
      "type": "function"
    },
    {
      "inputs": [
        {
          "internalType": "uint256",
          "name": "",
          "type": "uint256"
        }
      ],
      "name": "stakingPositions",
      "outputs": [
        {
          "internalType": "uint256",
          "name": "stakeId",
          "type": "uint256"
        },
        {
          "internalType": "address",
          "name": "staker",
          "type": "address"
        },
        {
          "internalType": "uint256",
          "name": "amount",
          "type": "uint256"
        },
        {
          "internalType": "uint256",
          "name": "lockPeriodSeconds",
          "type": "uint256"
        },
        {
          "internalType": "uint256",
          "name": "startTime",
          "type": "uint256"
        },
        {
          "internalType": "uint256",
          "name": "endTime",
          "type": "uint256"
        },
        {
          "internalType": "uint256",
          "name": "lastClaimTime",
          "type": "uint256"
        },
        {
          "internalType": "uint256",
          "name": "totalRewards",
          "type": "uint256"
        },
        {
          "internalType": "uint256",
          "name": "rewardRate",
          "type": "uint256"
        },
        {
          "internalType": "bool",
          "name": "isActive",
          "type": "bool"
        },
        {
          "internalType": "bool",
          "name": "isEarlyWithdrawalPenalty",
          "type": "bool"
        },
        {
          "internalType": "enum MusicStaking.LockPeriod",
          "name": "lockPeriod",
          "type": "uint8"
        }
      ],
      "stateMutability": "view",
      "type": "function"
    },
    {
      "inputs": [
        {
          "internalType": "enum MusicStaking.LockPeriod",
          "name": "",
          "type": "uint8"
        }
      ],
      "name": "stakingTiers",
      "outputs": [
        {
          "internalType": "uint256",
          "name": "minAmount",
          "type": "uint256"
        },
        {
          "internalType": "uint256",
          "name": "baseAPY",
          "type": "uint256"
        },
        {
          "internalType": "uint256",
          "name": "bonusMultiplier",
          "type": "uint256"
        }
      ],
      "stateMutability": "view",
      "type": "function"
    },
    {
      "inputs": [],
      "name": "stakingToken",
      "outputs": [
        {
          "internalType": "contract IERC20",
          "name": "",
          "type": "address"
        }
      ],
      "stateMutability": "view",
      "type": "function"
    },
    {
      "inputs": [
        {
          "internalType": "address",
          "name": "",
          "type": "address"
        }
      ],
      "name": "totalRewardsEarned",
      "outputs": [
        {
          "internalType": "uint256",
          "name": "",
          "type": "uint256"
        }
      ],
      "stateMutability": "view",
      "type": "function"
    },
    {
      "inputs": [
        {
          "internalType": "address",
          "name": "",
          "type": "address"
        }
      ],
      "name": "totalStakedByUser",
      "outputs": [
        {
          "internalType": "uint256",
          "name": "",
          "type": "uint256"
        }
      ],
      "stateMutability": "view",
      "type": "function"
    },
    {
      "inputs": [
        {
          "internalType": "address",
          "name": "newOwner",
          "type": "address"
        }
      ],
      "name": "transferOwnership",
      "outputs": [],
      "stateMutability": "nonpayable",
      "type": "function"
    },
    {
      "inputs": [],
      "name": "unpause",
      "outputs": [],
      "stateMutability": "nonpayable",
      "type": "function"
    },
    {
      "inputs": [
        {
          "internalType": "uint256",
          "name": "newPenalty",
          "type": "uint256"
        }
      ],
      "name": "updateEarlyWithdrawalPenalty",
      "outputs": [],
      "stateMutability": "nonpayable",
      "type": "function"
    },
    {
      "inputs": [
        {
          "internalType": "uint256",
          "name": "newRewardRate",
          "type": "uint256"
        }
      ],
      "name": "updateRewardPool",
      "outputs": [],
      "stateMutability": "nonpayable",
      "type": "function"
    },
    {
      "inputs": [
        {
          "internalType": "enum MusicStaking.LockPeriod",
          "name": "lockPeriod",
          "type": "uint8"
        },
        {
          "internalType": "uint256",
          "name": "minAmount",
          "type": "uint256"
        },
        {
          "internalType": "uint256",
          "name": "baseAPY",
          "type": "uint256"
        },
        {
          "internalType": "uint256",
          "name": "bonusMultiplier",
          "type": "uint256"
        }
      ],
      "name": "updateStakingTier",
      "outputs": [],
      "stateMutability": "nonpayable",
      "type": "function"
    },
    {
      "inputs": [
        {
          "internalType": "address",
          "name": "",
          "type": "address"
        },
        {
          "internalType": "uint256",
          "name": "",
          "type": "uint256"
        }
      ],
      "name": "userStakes",
      "outputs": [
        {
          "internalType": "uint256",
          "name": "",
          "type": "uint256"
        }
      ],
      "stateMutability": "view",
      "type": "function"
    },
    {
      "inputs": [
        {
          "internalType": "uint256",
          "name": "stakeId",
          "type": "uint256"
        }
      ],
      "name": "withdraw",
      "outputs": [],
      "stateMutability": "nonpayable",
      "type": "function"
    }
  ],
  "bytecode": "0x6103e8600e5561010060405262278d0060809081526276a70060a05262ed4e0060c0526301e1338060e0526200003a90600f90600462000404565b503480156200004857600080fd5b506040516200263f3803806200263f8339810160408190526200006b9162000473565b6200007633620003b4565b6000805460ff60a01b19169055600180556001600160a01b038116620000e25760405162461bcd60e51b815260206004820152601d60248201527f496e76616c6964207374616b696e6720746f6b656e2061646472657373000000604482015260640160405180910390fd5b600280546001600160a01b0319166001600160a01b0383161790556040805160a08101825260008082526020820181905242928201839052606082018190526107d060809092018290526009819055600a819055600b92909255600c91909155600d55620003ad604080516060808201835268056bc75e2d6310000082526105dc602080840191825261044c8486019081526000808052600680845295517f54cdd369e4e8a8515e52ca72ec816c2101831ad1f18bf44102ed171459c9b4f85592517f54cdd369e4e8a8515e52ca72ec816c2101831ad1f18bf44102ed171459c9b4f955517f54cdd369e4e8a8515e52ca72ec816c2101831ad1f18bf44102ed171459c9b4fa5584518084018652681b1ae4d6e2ef50000081526107d08183018181526105148389019081526001865287855292517f3e5fec24aa4dc4e5aee2e025e51e1392c72a2500577559fae9665c6d52bd6a3155517f3e5fec24aa4dc4e5aee2e025e51e1392c72a2500577559fae9665c6d52bd6a325590517f3e5fec24aa4dc4e5aee2e025e51e1392c72a2500577559fae9665c6d52bd6a335585518085018752683635c9adc5dea0000081526109c48184019081526106408289019081526002865287855291517f8819ef417987f8ae7a81f42cdfb18815282fe989326fbff903d13cf0e03ace2955517f8819ef417987f8ae7a81f42cdfb18815282fe989326fbff903d13cf0e03ace2a55517f8819ef417987f8ae7a81f42cdfb18815282fe989326fbff903d13cf0e03ace2b558551938401865268878678326eac9000008452610dac848301908152958401908152600390925292909252517f75f96ab15d697e93042dc45b5c896c4b27e89bb6eaf39475c5c371cb2513f7d25590517f75f96ab15d697e93042dc45b5c896c4b27e89bb6eaf39475c5c371cb2513f7d355517f75f96ab15d697e93042dc45b5c896c4b27e89bb6eaf39475c5c371cb2513f7d455565b50620004a5565b600080546001600160a01b038381166001600160a01b0319831681178455604051919092169283917f8be0079c531659141344cd1fd0a4f28419497f9722a3daafe3b4186f6b6457e09190a35050565b8280548282559060005260206000209081019282156200044a579160200282015b828111156200044a578251829063ffffffff1690559160200191906001019062000425565b50620004589291506200045c565b5090565b5b808211156200045857600081556001016200045d565b6000602082840312156200048657600080fd5b81516001600160a01b03811681146200049e57600080fd5b9392505050565b61218a80620004b56000396000f3fe608060405234801561001057600080fd5b50600436106101cf5760003560e01c80638093360811610104578063b80d45f2116100a2578063e4f24cb011610071578063e4f24cb0146104d9578063e6a69ab8146104f9578063f2fde38b14610504578063f9f87c181461051757600080fd5b8063b80d45f214610456578063b95ffbce146104a0578063cc39a89c146104b3578063d1e85a74146104c657600080fd5b80638da5cb5b116100de5780638da5cb5b14610416578063aaf5eb6814610427578063b49b0cb314610430578063b5d5b5fa1461044357600080fd5b806380933608146103c6578063842e2981146103ee5780638456cb591461040e57600080fd5b8063489aa03311610171578063622dff961161014b578063622dff961461033e57806366666aa914610351578063715018a61461039357806372f702f31461039b57600080fd5b8063489aa033146102ee5780634a0a52da1461030e5780635c975abb1461032157600080fd5b8063291a3d9e116101ad578063291a3d9e146102335780632e1a7d4d1461023c57806331a73f9b1461024f5780633f4ba83a146102e657600080fd5b806308521f79146101d45780630962ef79146101fd57806310087fb114610212575b600080fd5b6101e76101e2366004611dbe565b61052a565b6040516101f49190611e0f565b60405180910390f35b61021061020b366004611dbe565b610639565b005b610225610220366004611ece565b610927565b6040519081526020016101f4565b610225600e5481565b61021061024a366004611dbe565b610dbb565b6102ce61025d366004611dbe565b6004602081905260009182526040909120805460018201546002830154600384015494840154600585015460068601546007870154600888015460099098015496986001600160a01b03909616979496939492939192909160ff80821691610100810482169162010000909104168c565b6040516101f49c9b9a99989796959493929190611efa565b6102106111bd565b6102256102fc366004611f87565b60076020526000908152604090205481565b61022561031c366004611dbe565b6111cf565b600054600160a01b900460ff1660405190151581526020016101f4565b61021061034c366004611fa2565b6111f0565b600954600a54600b54600c54600d5461036b949392919085565b604080519586526020860194909452928401919091526060830152608082015260a0016101f4565b61021061140a565b6002546103ae906001600160a01b031681565b6040516001600160a01b0390911681526020016101f4565b6103d96103d4366004611f87565b61141c565b604080519283526020830191909152016101f4565b6104016103fc366004611f87565b61152f565b6040516101f49190611fdb565b61021061159b565b6000546001600160a01b03166103ae565b61022561271081565b61021061043e36600461201f565b6115ab565b61022561045136600461201f565b6116a8565b610485610464366004612049565b60066020526000908152604090208054600182015460029092015490919083565b604080519384526020840192909252908201526060016101f4565b6102106104ae366004611dbe565b6116d9565b6102106104c1366004611dbe565b611856565b6102106104d4366004611dbe565b6118e9565b6102256104e7366004611f87565b60086020526000908152604090205481565b6102256301e1338081565b610210610512366004611f87565b61193b565b610225610525366004611dbe565b6119b1565b610532611d40565b60035482111561055d5760405162461bcd60e51b815260040161055490612064565b60405180910390fd5b6000828152600460208181526040928390208351610180810185528154815260018201546001600160a01b0316928101929092526002810154938201939093526003808401546060830152918301546080820152600583015460a0820152600683015460c0820152600783015460e0820152600883015461010080830191909152600984015460ff8082161515610120850152918104821615156101408401529193926101608501926201000090049091169081111561061f5761061f611dd7565b600381111561063057610630611dd7565b90525092915050565b6106416119f9565b6003548111156106635760405162461bcd60e51b815260040161055490612064565b600081815260046020526040902060018101546001600160a01b031633146106bf5760405162461bcd60e51b815260206004820152600f60248201526e2737ba1039ba30b5b29037bbb732b960891b6044820152606401610554565b600981015460ff166107095760405162461bcd60e51b8152602060048201526013602482015272506f736974696f6e206e6f742061637469766560681b6044820152606401610554565b600061071482611a52565b90506000811161075c5760405162461bcd60e51b81526020600482015260136024820152724e6f207265776172647320746f20636c61696d60681b6044820152606401610554565b6009548111156107ae5760405162461bcd60e51b815260206004820152601860248201527f496e73756666696369656e742072657761726420706f6f6c00000000000000006044820152606401610554565b428260060181905550808260070160008282546107cb91906120a4565b909155505033600090815260086020526040812080548392906107ef9084906120a4565b9091555050600a80548291906000906108099084906120a4565b9091555050600980548291906000906108239084906120b7565b909155505060025460405163a9059cbb60e01b8152336004820152602481018390526001600160a01b039091169063a9059cbb906044016020604051808303816000875af1158015610879573d6000803e3d6000fd5b505050506040513d601f19601f8201168201806040525081019061089d91906120ca565b6108e25760405162461bcd60e51b815260206004820152601660248201527514995dd85c99081d1c985b9cd9995c8819985a5b195960521b6044820152606401610554565b604051818152339084907f3300bdb359cfb956935bca32e9db727413eab1ca84341f2e36caea85bb7969689060200160405180910390a3505061092460018055565b50565b60006109316119f9565b610939611b61565b600083116109895760405162461bcd60e51b815260206004820152601d60248201527f416d6f756e74206d7573742062652067726561746572207468616e20300000006044820152606401610554565b6000600660008460038111156109a1576109a1611dd7565b60038111156109b2576109b2611dd7565b8152602001908152602001600020604051806060016040529081600082015481526020016001820154815260200160028201548152505090508060000151841015610a3f5760405162461bcd60e51b815260206004820152601d60248201527f416d6f756e742062656c6f77206d696e696d756d20666f7220746965720000006044820152606401610554565b600061271082604001518360200151610a5891906120ec565b610a629190612103565b905060006127106301e13380610a7884896120ec565b610a829190612103565b610a8c9190612103565b6002546040516323b872dd60e01b8152336004820152306024820152604481018990529192506001600160a01b0316906323b872dd906064016020604051808303816000875af1158015610ae4573d6000803e3d6000fd5b505050506040513d601f19601f82011682018060405250810190610b0891906120ca565b610b4c5760405162461bcd60e51b8152602060048201526015602482015274151bdad95b881d1c985b9cd9995c8819985a5b1959605a1b6044820152606401610554565b610b5a600380546001019055565b6000610b6560035490565b90506000600f876003811115610b7d57610b7d611dd7565b81548110610b8d57610b8d612125565b60009182526020822001549150610ba482426120a4565b9050604051806101800160405280848152602001336001600160a01b031681526020018a815260200183815260200142815260200182815260200142815260200160008152602001858152602001600115158152602001600015158152602001896003811115610c1657610c16611dd7565b905260008481526004602081815260409283902084518155908401516001820180546001600160a01b0319166001600160a01b03909216919091179055918301516002830155606083015160038084019190915560808401519183019190915560a0830151600583015560c0830151600683015560e0830151600783015561010080840151600884015561012084015160098401805461014087015161ffff1990911692151561ff00191692909217911515909202178082556101608501519262ff0000199091169062010000908490811115610cf557610cf5611dd7565b0217905550503360008181526005602090815260408083208054600181018255908452828420018890559282526007905290812080548c9350909190610d3c9084906120a4565b9091555050600c80548a9190600090610d569084906120a4565b909155505042600b55604080518a815260208101849052908101859052339084907f94f54bb48cedd45253f4ace35b1e25b1396407c5316b875feafaf710a8a1c48e9060600160405180910390a35090945050505050610db560018055565b92915050565b610dc36119f9565b600354811115610de55760405162461bcd60e51b815260040161055490612064565b600081815260046020526040902060018101546001600160a01b03163314610e415760405162461bcd60e51b815260206004820152600f60248201526e2737ba1039ba30b5b29037bbb732b960891b6044820152606401610554565b600981015460ff16610e955760405162461bcd60e51b815260206004820152601a60248201527f506f736974696f6e20616c72656164792077697468647261776e0000000000006044820152606401610554565b6000610ea082611a52565b6002830154600584015491925090421015610f135760098301805461ff001916610100179055600e54600284015460009161271091610edf91906120ec565b610ee99190612103565b9050610ef581836120b7565b91508060096000016000828254610f0c91906120a4565b9091555050505b60098301805460ff19169055600783018054839190600090610f369084906120a4565b909155505060028301543360009081526007602052604081208054909190610f5f9084906120b7565b90915550503360009081526008602052604081208054849290610f839084906120a4565b90915550506002830154600c8054600090610f9f9084906120b7565b9091555050600a8054839190600090610fb99084906120a4565b909155505042600b5580156110895760025460405163a9059cbb60e01b8152336004820152602481018390526001600160a01b039091169063a9059cbb906044016020604051808303816000875af1158015611019573d6000803e3d6000fd5b505050506040513d601f19601f8201168201806040525081019061103d91906120ca565b6110895760405162461bcd60e51b815260206004820152601960248201527f5072696e636970616c207472616e73666572206661696c6564000000000000006044820152606401610554565b60008211801561109b57506009548211155b156111745781600960000160008282546110b591906120b7565b909155505060025460405163a9059cbb60e01b8152336004820152602481018490526001600160a01b039091169063a9059cbb906044016020604051808303816000875af115801561110b573d6000803e3d6000fd5b505050506040513d601f19601f8201168201806040525081019061112f91906120ca565b6111745760405162461bcd60e51b815260206004820152601660248201527514995dd85c99081d1c985b9cd9995c8819985a5b195960521b6044820152606401610554565b6040805182815260208101849052339186917f1c84cc0f96161bdafea718a9094dd21c21d1fb2f9ca2ebb9bd4e39918efbaace910160405180910390a350505061092460018055565b6111c5611bae565b6111cd611c08565b565b600f81815481106111df57600080fd5b600091825260209091200154905081565b6111f8611bae565b600083116112565760405162461bcd60e51b815260206004820152602560248201527f4d696e696d756d20616d6f756e74206d75737420626520677265617465722074604482015264068616e20360dc1b6064820152608401610554565b61271082111561129c5760405162461bcd60e51b8152602060048201526011602482015270084c2e6ca4082a0b240e8dede40d0d2ced607b1b6044820152606401610554565b6103e88110156112ee5760405162461bcd60e51b815260206004820152601860248201527f426f6e7573206d756c7469706c69657220746f6f206c6f7700000000000000006044820152606401610554565b6113888111156113405760405162461bcd60e51b815260206004820152601960248201527f426f6e7573206d756c7469706c69657220746f6f2068696768000000000000006044820152606401610554565b6040518060600160405280848152602001838152602001828152506006600086600381111561137157611371611dd7565b600381111561138257611382611dd7565b81526020019081526020016000206000820151816000015560208201518160010155604082015181600201559050508360038111156113c3576113c3611dd7565b60408051858152602081018590529081018390527fe7e71358c54e761ac3479f29d7f83a5df05008dee155953bf66ec102fb52fe289060600160405180910390a250505050565b611412611bae565b6111cd6000611c5d565b6001600160a01b0381166000908152600760209081526040808320546005835281842080548351818602810186019094528084529194938493929083018282801561148657602002820191906000526020600020905b815481526020019060010190808311611472575b5050505050905060005b815181101561152857600460008383815181106114af576114af612125565b60209081029190910181015182528101919091526040016000206009015460ff161561151657611509600460008484815181106114ee576114ee612125565b60200260200101518152602001908152602001600020611a52565b61151390846120a4565b92505b806115208161213b565b915050611490565b5050915091565b6001600160a01b03811660009081526005602090815260409182902080548351818402810184019094528084526060939283018282801561158f57602002820191906000526020600020905b81548152602001906001019080831161157b575b50505050509050919050565b6115a3611bae565b6111cd611cad565b6115b3611bae565b6002546001600160a01b03908116908316036116115760405162461bcd60e51b815260206004820152601c60248201527f43616e6e6f74207265636f766572207374616b696e6720746f6b656e000000006044820152606401610554565b816001600160a01b031663a9059cbb6116326000546001600160a01b031690565b6040516001600160e01b031960e084901b1681526001600160a01b039091166004820152602481018490526044016020604051808303816000875af115801561167f573d6000803e3d6000fd5b505050506040513d601f19601f820116820180604052508101906116a391906120ca565b505050565b600560205281600052604060002081815481106116c457600080fd5b90600052602060002001600091509150505481565b6116e1611bae565b600081116117315760405162461bcd60e51b815260206004820152601d60248201527f416d6f756e74206d7573742062652067726561746572207468616e20300000006044820152606401610554565b6002546040516323b872dd60e01b8152336004820152306024820152604481018390526001600160a01b03909116906323b872dd906064016020604051808303816000875af1158015611788573d6000803e3d6000fd5b505050506040513d601f19601f820116820180604052508101906117ac91906120ca565b6117f05760405162461bcd60e51b8152602060048201526015602482015274151bdad95b881d1c985b9cd9995c8819985a5b1959605a1b6044820152606401610554565b806009600001600082825461180591906120a4565b909155505042600b55600954600d546040517f814cb19bc63c7edd0de527a0bdfad44ccc4485fc2cd0322297a122fdb36034ac9261184b92908252602082015260400190565b60405180910390a150565b61185e611bae565b6127108111156118a75760405162461bcd60e51b81526020600482015260146024820152730a4caeec2e4c840e4c2e8ca40e8dede40d0d2ced60631b6044820152606401610554565b600d81905542600b5560095460408051918252602082018390527f814cb19bc63c7edd0de527a0bdfad44ccc4485fc2cd0322297a122fdb36034ac910161184b565b6118f1611bae565b6113888111156119365760405162461bcd60e51b815260206004820152601060248201526f0a0cadcc2d8e8f240e8dede40d0d2ced60831b6044820152606401610554565b600e55565b611943611bae565b6001600160a01b0381166119a85760405162461bcd60e51b815260206004820152602660248201527f4f776e61626c653a206e6577206f776e657220697320746865207a65726f206160448201526564647265737360d01b6064820152608401610554565b61092481611c5d565b60006119bc60035490565b8211156119db5760405162461bcd60e51b815260040161055490612064565b60008281526004602052604090206119f281611a52565b9392505050565b600260015403611a4b5760405162461bcd60e51b815260206004820152601f60248201527f5265656e7472616e637947756172643a207265656e7472616e742063616c6c006044820152606401610554565b6002600155565b600981015460009060ff16611a6957506000919050565b6000826006015442611a7b91906120b7565b905060008111611a8e5750600092915050565b6000612710828560080154611aa391906120ec565b611aad9190612103565b90506000600660008660090160029054906101000a900460ff166003811115611ad857611ad8611dd7565b6003811115611ae957611ae9611dd7565b8152602001908152602001600020604051806060016040529081600082015481526020016001820154815260200160028201548152505090506000612710808360400151611b3791906120b7565b611b4190856120ec565b611b4b9190612103565b9050611b5781846120a4565b9695505050505050565b600054600160a01b900460ff16156111cd5760405162461bcd60e51b815260206004820152601060248201526f14185d5cd8589b194e881c185d5cd95960821b6044820152606401610554565b6000546001600160a01b031633146111cd5760405162461bcd60e51b815260206004820181905260248201527f4f776e61626c653a2063616c6c6572206973206e6f7420746865206f776e65726044820152606401610554565b611c10611cf0565b6000805460ff60a01b191690557f5db9ee0a495bf2e6ff9c91a7834c1ba4fdd244a5e8aa4e537bd38aeae4b073aa335b6040516001600160a01b03909116815260200160405180910390a1565b600080546001600160a01b038381166001600160a01b0319831681178455604051919092169283917f8be0079c531659141344cd1fd0a4f28419497f9722a3daafe3b4186f6b6457e09190a35050565b611cb5611b61565b6000805460ff60a01b1916600160a01b1790557f62e78cea01bee320cd4e420270b5ea74000d11b0c9f74754ebdbfc544b05a258611c403390565b600054600160a01b900460ff166111cd5760405162461bcd60e51b815260206004820152601460248201527314185d5cd8589b194e881b9bdd081c185d5cd95960621b6044820152606401610554565b6040518061018001604052806000815260200160006001600160a01b031681526020016000815260200160008152602001600081526020016000815260200160008152602001600081526020016000815260200160001515815260200160001515815260200160006003811115611db957611db9611dd7565b905290565b600060208284031215611dd057600080fd5b5035919050565b634e487b7160e01b600052602160045260246000fd5b60048110611e0b57634e487b7160e01b600052602160045260246000fd5b9052565b81518152602080830151610180830191611e33908401826001600160a01b03169052565b5060408301516040830152606083015160608301526080830151608083015260a083015160a083015260c083015160c083015260e083015160e083015261010080840151818401525061012080840151611e908285018215159052565b50506101408381015115159083015261016080840151611eb282850182611ded565b505092915050565b803560048110611ec957600080fd5b919050565b60008060408385031215611ee157600080fd5b82359150611ef160208401611eba565b90509250929050565b6000610180820190508d825260018060a01b038d1660208301528b60408301528a60608301528960808301528860a08301528760c08301528660e083015285610100830152841515610120830152831515610140830152611f5f610160830184611ded565b9d9c50505050505050505050505050565b80356001600160a01b0381168114611ec957600080fd5b600060208284031215611f9957600080fd5b6119f282611f70565b60008060008060808587031215611fb857600080fd5b611fc185611eba565b966020860135965060408601359560600135945092505050565b6020808252825182820181905260009190848201906040850190845b8181101561201357835183529284019291840191600101611ff7565b50909695505050505050565b6000806040838503121561203257600080fd5b61203b83611f70565b946020939093013593505050565b60006020828403121561205b57600080fd5b6119f282611eba565b60208082526010908201526f125b9d985b1a59081cdd185ad948125160821b604082015260600190565b634e487b7160e01b600052601160045260246000fd5b80820180821115610db557610db561208e565b81810381811115610db557610db561208e565b6000602082840312156120dc57600080fd5b815180151581146119f257600080fd5b8082028115828204841417610db557610db561208e565b60008261212057634e487b7160e01b600052601260045260246000fd5b500490565b634e487b7160e01b600052603260045260246000fd5b60006001820161214d5761214d61208e565b506001019056fea2646970667358221220c55bba6fd9b40716df27e20cea01d729bcf2788731f54631744544c2a51e410564736f6c63430008130033",
  "linkReferences": {},
  "deployedLinkReferences": {}
}